{"abi":[{"type":"function","name":"balances","inputs":[{"name":"user","type":"address","internalType":"address"},{"name":"token","type":"address","internalType":"address"}],"outputs":[{"name":"","type":"uint256","internalType":"uint256"}],"stateMutability":"view"},{"type":"function","name":"deposit","inputs":[{"name":"token","type":"address","internalType":"address"},{"name":"amount","type":"uint256","internalType":"uint256"}],"outputs":[],"stateMutability":"nonpayable"},{"type":"function","name":"getBalance","inputs":[{"name":"user","type":"address","internalType":"address"},{"name":"token","type":"address","internalType":"address"}],"outputs":[{"name":"","type":"uint256","internalType":"uint256"}],"stateMutability":"view"},{"type":"function","name":"withdraw","inputs":[{"name":"token","type":"address","internalType":"address"},{"name":"amount","type":"uint256","internalType":"uint256"}],"outputs":[],"stateMutability":"nonpayable"},{"type":"event","name":"Deposited","inputs":[{"name":"user","type":"address","indexed":true,"internalType":"address"},{"name":"token","type":"address","indexed":true,"internalType":"address"},{"name":"amount","type":"uint256","indexed":false,"internalType":"uint256"}],"anonymous":false},{"type":"event","name":"Withdrawn","inputs":[{"name":"user","type":"address","indexed":true,"internalType":"address"},{"name":"token","type":"address","indexed":true,"internalType":"address"},{"name":"amount","type":"uint256","indexed":false,"internalType":"uint256"}],"anonymous":false},{"type":"error","name":"SafeERC20FailedOperation","inputs":[{"name":"token","type":"address","internalType":"address"}]}],"bytecode":{"object":"0x6080604052348015600e575f5ffd5b506105bb8061001c5f395ff3fe608060405234801561000f575f5ffd5b506004361061004a575f3560e01c806347e7ef241461004e578063c23f001f14610063578063d4fac45d1461009c578063f3fef3a3146100af575b5f5ffd5b61006161005c366004610465565b6100c2565b005b61008a61007136600461048d565b5f60208181529281526040808220909352908152205481565b60405190815260200160405180910390f35b61008a6100aa36600461048d565b61019f565b6100616100bd366004610465565b6101c9565b6001600160a01b0382166100f15760405162461bcd60e51b81526004016100e8906104be565b60405180910390fd5b5f81116101105760405162461bcd60e51b81526004016100e8906104ff565b6101256001600160a01b038316333084610305565b335f908152602081815260408083206001600160a01b03861684529091528120805483929061015590849061055f565b90915550506040518181526001600160a01b0383169033907f8752a472e571a816aea92eec8dae9baf628e840f4929fbcc2d155e6233ff68a7906020015b60405180910390a35050565b6001600160a01b038083165f90815260208181526040808320938516835292905220545b92915050565b6001600160a01b0382166101ef5760405162461bcd60e51b81526004016100e8906104be565b5f811161020e5760405162461bcd60e51b81526004016100e8906104ff565b335f908152602081815260408083206001600160a01b038616845290915290205481111561027e5760405162461bcd60e51b815260206004820181905260248201527f546f6b656e5661756c743a20496e73756666696369656e742062616c616e636560448201526064016100e8565b335f908152602081815260408083206001600160a01b0386168452909152812080548392906102ae908490610572565b909155506102c890506001600160a01b0383163383610341565b6040518181526001600160a01b0383169033907fd1c19fbcd4551a5edfb66d43d2e337c04837afda3482b42bdf569a8fccdae5fb90602001610193565b61031384848484600161037b565b61033b57604051635274afe760e01b81526001600160a01b03851660048201526024016100e8565b50505050565b61034e83838360016103e8565b61037657604051635274afe760e01b81526001600160a01b03841660048201526024016100e8565b505050565b6040516323b872dd60e01b5f8181526001600160a01b038781166004528616602452604485905291602083606481808c5af1925060015f511483166103d75783831516156103cb573d5f823e3d81fd5b5f883b113d1516831692505b604052505f60605295945050505050565b60405163a9059cbb60e01b5f8181526001600160a01b038616600452602485905291602083604481808b5af1925060015f5114831661043e578383151615610432573d5f823e3d81fd5b5f873b113d1516831692505b60405250949350505050565b80356001600160a01b0381168114610460575f5ffd5b919050565b5f5f60408385031215610476575f5ffd5b61047f8361044a565b946020939093013593505050565b5f5f6040838503121561049e575f5ffd5b6104a78361044a565b91506104b56020840161044a565b90509250929050565b60208082526021908201527f546f6b656e5661756c743a20496e76616c696420746f6b656e206164647265736040820152607360f81b606082015260800190565b6020808252602c908201527f546f6b656e5661756c743a20416d6f756e74206d75737420626520677265617460408201526b6572207468616e207a65726f60a01b606082015260800190565b634e487b7160e01b5f52601160045260245ffd5b808201808211156101c3576101c361054b565b818103818111156101c3576101c361054b56fea2646970667358221220d454365179963980884e4fd8a2590042ce6f628c35ce54af7437b93b540fa64564736f6c634300081d0033","linkReferences":{}},"methodIdentifiers":{"balances(address,address)":"c23f001f","deposit(address,uint256)":"47e7ef24","getBalance(address,address)":"d4fac45d","withdraw(address,uint256)":"f3fef3a3"},"id":33}